{
    "_format": "hh-sol-artifact-1",
    "contractName": "upgradableNFT",
    "sourceName": "contracts/upgradableNFT.sol",
    "abi": [
        {
            "inputs": [],
            "stateMutability": "nonpayable",
            "type": "constructor"
        },
        {
            "anonymous": false,
            "inputs": [
                {
                    "indexed": true,
                    "internalType": "address",
                    "name": "owner",
                    "type": "address"
                },
                {
                    "indexed": true,
                    "internalType": "address",
                    "name": "approved",
                    "type": "address"
                },
                {
                    "indexed": true,
                    "internalType": "uint256",
                    "name": "tokenId",
                    "type": "uint256"
                }
            ],
            "name": "Approval",
            "type": "event"
        },
        {
            "anonymous": false,
            "inputs": [
                {
                    "indexed": true,
                    "internalType": "address",
                    "name": "owner",
                    "type": "address"
                },
                {
                    "indexed": true,
                    "internalType": "address",
                    "name": "operator",
                    "type": "address"
                },
                {
                    "indexed": false,
                    "internalType": "bool",
                    "name": "approved",
                    "type": "bool"
                }
            ],
            "name": "ApprovalForAll",
            "type": "event"
        },
        {
            "anonymous": false,
            "inputs": [
                {
                    "indexed": false,
                    "internalType": "address",
                    "name": "sender",
                    "type": "address"
                },
                {
                    "indexed": false,
                    "internalType": "uint256",
                    "name": "tokenId",
                    "type": "uint256"
                },
                {
                    "indexed": false,
                    "internalType": "string",
                    "name": "tokenURI",
                    "type": "string"
                }
            ],
            "name": "NewNFTMinted",
            "type": "event"
        },
        {
            "anonymous": false,
            "inputs": [
                {
                    "indexed": true,
                    "internalType": "address",
                    "name": "from",
                    "type": "address"
                },
                {
                    "indexed": true,
                    "internalType": "address",
                    "name": "to",
                    "type": "address"
                },
                {
                    "indexed": true,
                    "internalType": "uint256",
                    "name": "tokenId",
                    "type": "uint256"
                }
            ],
            "name": "Transfer",
            "type": "event"
        },
        {
            "anonymous": false,
            "inputs": [
                {
                    "indexed": false,
                    "internalType": "uint256",
                    "name": "tokenId",
                    "type": "uint256"
                },
                {
                    "indexed": false,
                    "internalType": "string",
                    "name": "tokenURI",
                    "type": "string"
                },
                {
                    "indexed": false,
                    "internalType": "string",
                    "name": "updatedTokenURI",
                    "type": "string"
                }
            ],
            "name": "updateMintedNFT",
            "type": "event"
        },
        {
            "inputs": [
                {
                    "internalType": "address",
                    "name": "to",
                    "type": "address"
                },
                {
                    "internalType": "uint256",
                    "name": "tokenId",
                    "type": "uint256"
                }
            ],
            "name": "approve",
            "outputs": [],
            "stateMutability": "nonpayable",
            "type": "function"
        },
        {
            "inputs": [
                {
                    "internalType": "address",
                    "name": "owner",
                    "type": "address"
                }
            ],
            "name": "balanceOf",
            "outputs": [
                {
                    "internalType": "uint256",
                    "name": "",
                    "type": "uint256"
                }
            ],
            "stateMutability": "view",
            "type": "function"
        },
        {
            "inputs": [
                {
                    "internalType": "uint256",
                    "name": "tokenId",
                    "type": "uint256"
                }
            ],
            "name": "burnToken",
            "outputs": [],
            "stateMutability": "nonpayable",
            "type": "function"
        },
        {
            "inputs": [
                {
                    "internalType": "uint256",
                    "name": "tokenId",
                    "type": "uint256"
                }
            ],
            "name": "getApproved",
            "outputs": [
                {
                    "internalType": "address",
                    "name": "",
                    "type": "address"
                }
            ],
            "stateMutability": "view",
            "type": "function"
        },
        {
            "inputs": [
                {
                    "internalType": "address",
                    "name": "owner",
                    "type": "address"
                },
                {
                    "internalType": "address",
                    "name": "operator",
                    "type": "address"
                }
            ],
            "name": "isApprovedForAll",
            "outputs": [
                {
                    "internalType": "bool",
                    "name": "",
                    "type": "bool"
                }
            ],
            "stateMutability": "view",
            "type": "function"
        },
        {
            "inputs": [
                {
                    "internalType": "string",
                    "name": "currentTokenUri",
                    "type": "string"
                }
            ],
            "name": "mintTrutsNFT",
            "outputs": [],
            "stateMutability": "nonpayable",
            "type": "function"
        },
        {
            "inputs": [],
            "name": "name",
            "outputs": [
                {
                    "internalType": "string",
                    "name": "",
                    "type": "string"
                }
            ],
            "stateMutability": "view",
            "type": "function"
        },
        {
            "inputs": [
                {
                    "internalType": "uint256",
                    "name": "tokenId",
                    "type": "uint256"
                }
            ],
            "name": "ownerOf",
            "outputs": [
                {
                    "internalType": "address",
                    "name": "",
                    "type": "address"
                }
            ],
            "stateMutability": "view",
            "type": "function"
        },
        {
            "inputs": [
                {
                    "internalType": "address",
                    "name": "from",
                    "type": "address"
                },
                {
                    "internalType": "address",
                    "name": "to",
                    "type": "address"
                },
                {
                    "internalType": "uint256",
                    "name": "tokenId",
                    "type": "uint256"
                }
            ],
            "name": "safeTransferFrom",
            "outputs": [],
            "stateMutability": "nonpayable",
            "type": "function"
        },
        {
            "inputs": [
                {
                    "internalType": "address",
                    "name": "from",
                    "type": "address"
                },
                {
                    "internalType": "address",
                    "name": "to",
                    "type": "address"
                },
                {
                    "internalType": "uint256",
                    "name": "tokenId",
                    "type": "uint256"
                },
                {
                    "internalType": "bytes",
                    "name": "_data",
                    "type": "bytes"
                }
            ],
            "name": "safeTransferFrom",
            "outputs": [],
            "stateMutability": "nonpayable",
            "type": "function"
        },
        {
            "inputs": [
                {
                    "internalType": "address",
                    "name": "operator",
                    "type": "address"
                },
                {
                    "internalType": "bool",
                    "name": "approved",
                    "type": "bool"
                }
            ],
            "name": "setApprovalForAll",
            "outputs": [],
            "stateMutability": "nonpayable",
            "type": "function"
        },
        {
            "inputs": [
                {
                    "internalType": "bytes4",
                    "name": "interfaceId",
                    "type": "bytes4"
                }
            ],
            "name": "supportsInterface",
            "outputs": [
                {
                    "internalType": "bool",
                    "name": "",
                    "type": "bool"
                }
            ],
            "stateMutability": "view",
            "type": "function"
        },
        {
            "inputs": [],
            "name": "symbol",
            "outputs": [
                {
                    "internalType": "string",
                    "name": "",
                    "type": "string"
                }
            ],
            "stateMutability": "view",
            "type": "function"
        },
        {
            "inputs": [
                {
                    "internalType": "uint256",
                    "name": "tokenId",
                    "type": "uint256"
                }
            ],
            "name": "tokenURI",
            "outputs": [
                {
                    "internalType": "string",
                    "name": "",
                    "type": "string"
                }
            ],
            "stateMutability": "view",
            "type": "function"
        },
        {
            "inputs": [
                {
                    "internalType": "address",
                    "name": "from",
                    "type": "address"
                },
                {
                    "internalType": "address",
                    "name": "to",
                    "type": "address"
                },
                {
                    "internalType": "uint256",
                    "name": "tokenId",
                    "type": "uint256"
                }
            ],
            "name": "transferFrom",
            "outputs": [],
            "stateMutability": "nonpayable",
            "type": "function"
        },
        {
            "inputs": [
                {
                    "internalType": "uint256",
                    "name": "tokenId",
                    "type": "uint256"
                },
                {
                    "internalType": "string",
                    "name": "updatedTokenURI",
                    "type": "string"
                }
            ],
            "name": "updateTokenURI",
            "outputs": [],
            "stateMutability": "nonpayable",
            "type": "function"
        }
    ],
    "bytecode": "0x60806040523480156200001157600080fd5b506040518060400160405280600d81526020017f75706772616461626c654e4654000000000000000000000000000000000000008152506040518060400160405280600581526020017f4c6576656c000000000000000000000000000000000000000000000000000000815250816000908051906020019062000096929190620001f4565b508060019080519060200190620000af929190620001f4565b505050620000e1604051806060016040528060248152602001620037b8602491396200012860201b62000d881760201c565b33600760006101000a81548173ffffffffffffffffffffffffffffffffffffffff021916908373ffffffffffffffffffffffffffffffffffffffff160217905550620003d1565b620001c8816040516024016200013f919062000348565b6040516020818303038152906040527f41304fac000000000000000000000000000000000000000000000000000000007bffffffffffffffffffffffffffffffffffffffffffffffffffffffff19166020820180517bffffffffffffffffffffffffffffffffffffffffffffffffffffffff8381831617835250505050620001cb60201b60201c565b50565b60008151905060006a636f6e736f6c652e6c6f679050602083016000808483855afa5050505050565b82805462000202906200039b565b90600052602060002090601f01602090048101928262000226576000855562000272565b82601f106200024157805160ff191683800117855562000272565b8280016001018555821562000272579182015b828111156200027157825182559160200191906001019062000254565b5b50905062000281919062000285565b5090565b5b80821115620002a057600081600090555060010162000286565b5090565b600081519050919050565b600082825260208201905092915050565b60005b83811015620002e0578082015181840152602081019050620002c3565b83811115620002f0576000848401525b50505050565b6000601f19601f8301169050919050565b60006200031482620002a4565b620003208185620002af565b935062000332818560208601620002c0565b6200033d81620002f6565b840191505092915050565b6000602082019050818103600083015262000364818462000307565b905092915050565b7f4e487b7100000000000000000000000000000000000000000000000000000000600052602260045260246000fd5b60006002820490506001821680620003b457607f821691505b60208210811415620003cb57620003ca6200036c565b5b50919050565b6133d780620003e16000396000f3fe608060405234801561001057600080fd5b50600436106101005760003560e01c806370a0823111610097578063b88d4fde11610066578063b88d4fde146102a9578063c87b56dd146102c5578063e985e9c5146102f5578063edbb0e3b1461032557610100565b806370a08231146102235780637b47ec1a1461025357806395d89b411461026f578063a22cb4651461028d57610100565b806318e97fd1116100d357806318e97fd11461019f57806323b872dd146101bb57806342842e0e146101d75780636352211e146101f357610100565b806301ffc9a71461010557806306fdde0314610135578063081812fc14610153578063095ea7b314610183575b600080fd5b61011f600480360381019061011a9190611f0c565b610341565b60405161012c9190611f54565b60405180910390f35b61013d610423565b60405161014a9190612008565b60405180910390f35b61016d60048036038101906101689190612060565b6104b5565b60405161017a91906120ce565b60405180910390f35b61019d60048036038101906101989190612115565b61053a565b005b6101b960048036038101906101b4919061228a565b610652565b005b6101d560048036038101906101d091906122e6565b610739565b005b6101f160048036038101906101ec91906122e6565b610799565b005b61020d60048036038101906102089190612060565b6107b9565b60405161021a91906120ce565b60405180910390f35b61023d60048036038101906102389190612339565b61086b565b60405161024a9190612375565b60405180910390f35b61026d60048036038101906102689190612060565b610923565b005b6102776109bf565b6040516102849190612008565b60405180910390f35b6102a760048036038101906102a291906123bc565b610a51565b005b6102c360048036038101906102be919061249d565b610a67565b005b6102df60048036038101906102da9190612060565b610ac9565b6040516102ec9190612008565b60405180910390f35b61030f600480360381019061030a9190612520565b610c1b565b60405161031c9190611f54565b60405180910390f35b61033f600480360381019061033a9190612560565b610caf565b005b60007f80ac58cd000000000000000000000000000000000000000000000000000000007bffffffffffffffffffffffffffffffffffffffffffffffffffffffff1916827bffffffffffffffffffffffffffffffffffffffffffffffffffffffff1916148061040c57507f5b5e139f000000000000000000000000000000000000000000000000000000007bffffffffffffffffffffffffffffffffffffffffffffffffffffffff1916827bffffffffffffffffffffffffffffffffffffffffffffffffffffffff1916145b8061041c575061041b82610e21565b5b9050919050565b606060008054610432906125d8565b80601f016020809104026020016040519081016040528092919081815260200182805461045e906125d8565b80156104ab5780601f10610480576101008083540402835291602001916104ab565b820191906000526020600020905b81548152906001019060200180831161048e57829003601f168201915b5050505050905090565b60006104c082610e8b565b6104ff576040517f08c379a00000000000000000000000000000000000000000000000000000000081526004016104f69061267c565b60405180910390fd5b6004600083815260200190815260200160002060009054906101000a900473ffffffffffffffffffffffffffffffffffffffff169050919050565b6000610545826107b9565b90508073ffffffffffffffffffffffffffffffffffffffff168373ffffffffffffffffffffffffffffffffffffffff1614156105b6576040517f08c379a00000000000000000000000000000000000000000000000000000000081526004016105ad9061270e565b60405180910390fd5b8073ffffffffffffffffffffffffffffffffffffffff166105d5610ef7565b73ffffffffffffffffffffffffffffffffffffffff1614806106045750610603816105fe610ef7565b610c1b565b5b610643576040517f08c379a000000000000000000000000000000000000000000000000000000000815260040161063a906127a0565b60405180910390fd5b61064d8383610eff565b505050565b600760009054906101000a900473ffffffffffffffffffffffffffffffffffffffff1673ffffffffffffffffffffffffffffffffffffffff163373ffffffffffffffffffffffffffffffffffffffff16146106e2576040517f08c379a00000000000000000000000000000000000000000000000000000000081526004016106d990612832565b60405180910390fd5b60006106ed83610ac9565b90506106f98383610fb8565b7f818424c0e4bdc062034767caba412687e46e05994f53c85bd3e9b8beae56914583828460405161072c93929190612852565b60405180910390a1505050565b61074a610744610ef7565b8261102c565b610789576040517f08c379a000000000000000000000000000000000000000000000000000000000815260040161078090612909565b60405180910390fd5b61079483838361110a565b505050565b6107b483838360405180602001604052806000815250610a67565b505050565b6000806002600084815260200190815260200160002060009054906101000a900473ffffffffffffffffffffffffffffffffffffffff169050600073ffffffffffffffffffffffffffffffffffffffff168173ffffffffffffffffffffffffffffffffffffffff161415610862576040517f08c379a00000000000000000000000000000000000000000000000000000000081526004016108599061299b565b60405180910390fd5b80915050919050565b60008073ffffffffffffffffffffffffffffffffffffffff168273ffffffffffffffffffffffffffffffffffffffff1614156108dc576040517f08c379a00000000000000000000000000000000000000000000000000000000081526004016108d390612a2d565b60405180910390fd5b600360008373ffffffffffffffffffffffffffffffffffffffff1673ffffffffffffffffffffffffffffffffffffffff168152602001908152602001600020549050919050565b600760009054906101000a900473ffffffffffffffffffffffffffffffffffffffff1673ffffffffffffffffffffffffffffffffffffffff163373ffffffffffffffffffffffffffffffffffffffff16146109b3576040517f08c379a00000000000000000000000000000000000000000000000000000000081526004016109aa90612832565b60405180910390fd5b6109bc81611371565b50565b6060600180546109ce906125d8565b80601f01602080910402602001604051908101604052809291908181526020018280546109fa906125d8565b8015610a475780601f10610a1c57610100808354040283529160200191610a47565b820191906000526020600020905b815481529060010190602001808311610a2a57829003601f168201915b5050505050905090565b610a63610a5c610ef7565b83836113c4565b5050565b610a78610a72610ef7565b8361102c565b610ab7576040517f08c379a0000000000000000000000000000000000000000000000000000000008152600401610aae90612909565b60405180910390fd5b610ac384848484611531565b50505050565b6060610ad482610e8b565b610b13576040517f08c379a0000000000000000000000000000000000000000000000000000000008152600401610b0a90612abf565b60405180910390fd5b6000600660008481526020019081526020016000208054610b33906125d8565b80601f0160208091040260200160405190810160405280929190818152602001828054610b5f906125d8565b8015610bac5780601f10610b8157610100808354040283529160200191610bac565b820191906000526020600020905b815481529060010190602001808311610b8f57829003601f168201915b505050505090506000610bbd61158d565b9050600081511415610bd3578192505050610c16565b600082511115610c08578082604051602001610bf0929190612b1b565b60405160208183030381529060405292505050610c16565b610c11846115a4565b925050505b919050565b6000600560008473ffffffffffffffffffffffffffffffffffffffff1673ffffffffffffffffffffffffffffffffffffffff16815260200190815260200160002060008373ffffffffffffffffffffffffffffffffffffffff1673ffffffffffffffffffffffffffffffffffffffff16815260200190815260200160002060009054906101000a900460ff16905092915050565b6001610cba3361086b565b10610cfa576040517f08c379a0000000000000000000000000000000000000000000000000000000008152600401610cf190612b8b565b60405180910390fd5b6000610d06600861164b565b9050610d123382611659565b610d1c8183610fb8565b7f899b99f6c26ce7a463fc72a3a36ae78b414dae9cfa6e88e8580ec708e70f30b0338284604051610d4f93929190612bab565b60405180910390a1610d616008611677565b610d8460405180606001604052806025815260200161337d60259139823361168d565b5050565b610e1e81604051602401610d9c9190612008565b6040516020818303038152906040527f41304fac000000000000000000000000000000000000000000000000000000007bffffffffffffffffffffffffffffffffffffffffffffffffffffffff19166020820180517bffffffffffffffffffffffffffffffffffffffffffffffffffffffff838183161783525050505061172c565b50565b60007f01ffc9a7000000000000000000000000000000000000000000000000000000007bffffffffffffffffffffffffffffffffffffffffffffffffffffffff1916827bffffffffffffffffffffffffffffffffffffffffffffffffffffffff1916149050919050565b60008073ffffffffffffffffffffffffffffffffffffffff166002600084815260200190815260200160002060009054906101000a900473ffffffffffffffffffffffffffffffffffffffff1673ffffffffffffffffffffffffffffffffffffffff1614159050919050565b600033905090565b816004600083815260200190815260200160002060006101000a81548173ffffffffffffffffffffffffffffffffffffffff021916908373ffffffffffffffffffffffffffffffffffffffff160217905550808273ffffffffffffffffffffffffffffffffffffffff16610f72836107b9565b73ffffffffffffffffffffffffffffffffffffffff167f8c5be1e5ebec7d5bd14f71427d1e84f3dd0314c0f7b2291e5b200ac8c7c3b92560405160405180910390a45050565b610fc182610e8b565b611000576040517f08c379a0000000000000000000000000000000000000000000000000000000008152600401610ff790612c5b565b60405180910390fd5b80600660008481526020019081526020016000209080519060200190611027929190611dbd565b505050565b600061103782610e8b565b611076576040517f08c379a000000000000000000000000000000000000000000000000000000000815260040161106d90612ced565b60405180910390fd5b6000611081836107b9565b90508073ffffffffffffffffffffffffffffffffffffffff168473ffffffffffffffffffffffffffffffffffffffff1614806110c357506110c28185610c1b565b5b8061110157508373ffffffffffffffffffffffffffffffffffffffff166110e9846104b5565b73ffffffffffffffffffffffffffffffffffffffff16145b91505092915050565b8273ffffffffffffffffffffffffffffffffffffffff1661112a826107b9565b73ffffffffffffffffffffffffffffffffffffffff1614611180576040517f08c379a000000000000000000000000000000000000000000000000000000000815260040161117790612d7f565b60405180910390fd5b600073ffffffffffffffffffffffffffffffffffffffff168273ffffffffffffffffffffffffffffffffffffffff1614156111f0576040517f08c379a00000000000000000000000000000000000000000000000000000000081526004016111e790612e11565b60405180910390fd5b6111fb838383611755565b611206600082610eff565b6001600360008573ffffffffffffffffffffffffffffffffffffffff1673ffffffffffffffffffffffffffffffffffffffff16815260200190815260200160002060008282546112569190612e60565b925050819055506001600360008473ffffffffffffffffffffffffffffffffffffffff1673ffffffffffffffffffffffffffffffffffffffff16815260200190815260200160002060008282546112ad9190612e94565b92505081905550816002600083815260200190815260200160002060006101000a81548173ffffffffffffffffffffffffffffffffffffffff021916908373ffffffffffffffffffffffffffffffffffffffff160217905550808273ffffffffffffffffffffffffffffffffffffffff168473ffffffffffffffffffffffffffffffffffffffff167fddf252ad1be2c89b69c2b068fc378daa952ba7f163c4a11628f55a4df523b3ef60405160405180910390a461136c83838361175a565b505050565b61137a8161175f565b600060066000838152602001908152602001600020805461139a906125d8565b9050146113c1576006600082815260200190815260200160002060006113c09190611e43565b5b50565b8173ffffffffffffffffffffffffffffffffffffffff168373ffffffffffffffffffffffffffffffffffffffff161415611433576040517f08c379a000000000000000000000000000000000000000000000000000000000815260040161142a90612f36565b60405180910390fd5b80600560008573ffffffffffffffffffffffffffffffffffffffff1673ffffffffffffffffffffffffffffffffffffffff16815260200190815260200160002060008473ffffffffffffffffffffffffffffffffffffffff1673ffffffffffffffffffffffffffffffffffffffff16815260200190815260200160002060006101000a81548160ff0219169083151502179055508173ffffffffffffffffffffffffffffffffffffffff168373ffffffffffffffffffffffffffffffffffffffff167f17307eab39ab6107e8899845ad3d59bd9653f200f220920489ca2b5937696c31836040516115249190611f54565b60405180910390a3505050565b61153c84848461110a565b6115488484848461187c565b611587576040517f08c379a000000000000000000000000000000000000000000000000000000000815260040161157e90612fc8565b60405180910390fd5b50505050565b606060405180602001604052806000815250905090565b60606115af82610e8b565b6115ee576040517f08c379a00000000000000000000000000000000000000000000000000000000081526004016115e59061305a565b60405180910390fd5b60006115f861158d565b905060008151116116185760405180602001604052806000815250611643565b8061162284611a04565b604051602001611633929190612b1b565b6040516020818303038152906040525b915050919050565b600081600001549050919050565b611673828260405180602001604052806000815250611b65565b5050565b6001816000016000828254019250508190555050565b6117278383836040516024016116a59392919061307a565b6040516020818303038152906040527fe3849f79000000000000000000000000000000000000000000000000000000007bffffffffffffffffffffffffffffffffffffffffffffffffffffffff19166020820180517bffffffffffffffffffffffffffffffffffffffffffffffffffffffff838183161783525050505061172c565b505050565b60008151905060006a636f6e736f6c652e6c6f679050602083016000808483855afa5050505050565b505050565b505050565b600061176a826107b9565b905061177881600084611755565b611783600083610eff565b6001600360008373ffffffffffffffffffffffffffffffffffffffff1673ffffffffffffffffffffffffffffffffffffffff16815260200190815260200160002060008282546117d39190612e60565b925050819055506002600083815260200190815260200160002060006101000a81549073ffffffffffffffffffffffffffffffffffffffff021916905581600073ffffffffffffffffffffffffffffffffffffffff168273ffffffffffffffffffffffffffffffffffffffff167fddf252ad1be2c89b69c2b068fc378daa952ba7f163c4a11628f55a4df523b3ef60405160405180910390a46118788160008461175a565b5050565b600061189d8473ffffffffffffffffffffffffffffffffffffffff16611bc0565b156119f7578373ffffffffffffffffffffffffffffffffffffffff1663150b7a026118c6610ef7565b8786866040518563ffffffff1660e01b81526004016118e8949392919061310d565b6020604051808303816000875af192505050801561192457506040513d601f19601f82011682018060405250810190611921919061316e565b60015b6119a7573d8060008114611954576040519150601f19603f3d011682016040523d82523d6000602084013e611959565b606091505b5060008151141561199f576040517f08c379a000000000000000000000000000000000000000000000000000000000815260040161199690612fc8565b60405180910390fd5b805181602001fd5b63150b7a0260e01b7bffffffffffffffffffffffffffffffffffffffffffffffffffffffff1916817bffffffffffffffffffffffffffffffffffffffffffffffffffffffff1916149150506119fc565b600190505b949350505050565b60606000821415611a4c576040518060400160405280600181526020017f30000000000000000000000000000000000000000000000000000000000000008152509050611b60565b600082905060005b60008214611a7e578080611a679061319b565b915050600a82611a779190613213565b9150611a54565b60008167ffffffffffffffff811115611a9a57611a9961215f565b5b6040519080825280601f01601f191660200182016040528015611acc5781602001600182028036833780820191505090505b5090505b60008514611b5957600182611ae59190612e60565b9150600a85611af49190613244565b6030611b009190612e94565b60f81b818381518110611b1657611b15613275565b5b60200101907effffffffffffffffffffffffffffffffffffffffffffffffffffffffffffff1916908160001a905350600a85611b529190613213565b9450611ad0565b8093505050505b919050565b611b6f8383611be3565b611b7c600084848461187c565b611bbb576040517f08c379a0000000000000000000000000000000000000000000000000000000008152600401611bb290612fc8565b60405180910390fd5b505050565b6000808273ffffffffffffffffffffffffffffffffffffffff163b119050919050565b600073ffffffffffffffffffffffffffffffffffffffff168273ffffffffffffffffffffffffffffffffffffffff161415611c53576040517f08c379a0000000000000000000000000000000000000000000000000000000008152600401611c4a906132f0565b60405180910390fd5b611c5c81610e8b565b15611c9c576040517f08c379a0000000000000000000000000000000000000000000000000000000008152600401611c939061335c565b60405180910390fd5b611ca860008383611755565b6001600360008473ffffffffffffffffffffffffffffffffffffffff1673ffffffffffffffffffffffffffffffffffffffff1681526020019081526020016000206000828254611cf89190612e94565b92505081905550816002600083815260200190815260200160002060006101000a81548173ffffffffffffffffffffffffffffffffffffffff021916908373ffffffffffffffffffffffffffffffffffffffff160217905550808273ffffffffffffffffffffffffffffffffffffffff16600073ffffffffffffffffffffffffffffffffffffffff167fddf252ad1be2c89b69c2b068fc378daa952ba7f163c4a11628f55a4df523b3ef60405160405180910390a4611db96000838361175a565b5050565b828054611dc9906125d8565b90600052602060002090601f016020900481019282611deb5760008555611e32565b82601f10611e0457805160ff1916838001178555611e32565b82800160010185558215611e32579182015b82811115611e31578251825591602001919060010190611e16565b5b509050611e3f9190611e83565b5090565b508054611e4f906125d8565b6000825580601f10611e615750611e80565b601f016020900490600052602060002090810190611e7f9190611e83565b5b50565b5b80821115611e9c576000816000905550600101611e84565b5090565b6000604051905090565b600080fd5b600080fd5b60007fffffffff0000000000000000000000000000000000000000000000000000000082169050919050565b611ee981611eb4565b8114611ef457600080fd5b50565b600081359050611f0681611ee0565b92915050565b600060208284031215611f2257611f21611eaa565b5b6000611f3084828501611ef7565b91505092915050565b60008115159050919050565b611f4e81611f39565b82525050565b6000602082019050611f696000830184611f45565b92915050565b600081519050919050565b600082825260208201905092915050565b60005b83811015611fa9578082015181840152602081019050611f8e565b83811115611fb8576000848401525b50505050565b6000601f19601f8301169050919050565b6000611fda82611f6f565b611fe48185611f7a565b9350611ff4818560208601611f8b565b611ffd81611fbe565b840191505092915050565b600060208201905081810360008301526120228184611fcf565b905092915050565b6000819050919050565b61203d8161202a565b811461204857600080fd5b50565b60008135905061205a81612034565b92915050565b60006020828403121561207657612075611eaa565b5b60006120848482850161204b565b91505092915050565b600073ffffffffffffffffffffffffffffffffffffffff82169050919050565b60006120b88261208d565b9050919050565b6120c8816120ad565b82525050565b60006020820190506120e360008301846120bf565b92915050565b6120f2816120ad565b81146120fd57600080fd5b50565b60008135905061210f816120e9565b92915050565b6000806040838503121561212c5761212b611eaa565b5b600061213a85828601612100565b925050602061214b8582860161204b565b9150509250929050565b600080fd5b600080fd5b7f4e487b7100000000000000000000000000000000000000000000000000000000600052604160045260246000fd5b61219782611fbe565b810181811067ffffffffffffffff821117156121b6576121b561215f565b5b80604052505050565b60006121c9611ea0565b90506121d5828261218e565b919050565b600067ffffffffffffffff8211156121f5576121f461215f565b5b6121fe82611fbe565b9050602081019050919050565b82818337600083830152505050565b600061222d612228846121da565b6121bf565b9050828152602081018484840111156122495761224861215a565b5b61225484828561220b565b509392505050565b600082601f83011261227157612270612155565b5b813561228184826020860161221a565b91505092915050565b600080604083850312156122a1576122a0611eaa565b5b60006122af8582860161204b565b925050602083013567ffffffffffffffff8111156122d0576122cf611eaf565b5b6122dc8582860161225c565b9150509250929050565b6000806000606084860312156122ff576122fe611eaa565b5b600061230d86828701612100565b935050602061231e86828701612100565b925050604061232f8682870161204b565b9150509250925092565b60006020828403121561234f5761234e611eaa565b5b600061235d84828501612100565b91505092915050565b61236f8161202a565b82525050565b600060208201905061238a6000830184612366565b92915050565b61239981611f39565b81146123a457600080fd5b50565b6000813590506123b681612390565b92915050565b600080604083850312156123d3576123d2611eaa565b5b60006123e185828601612100565b92505060206123f2858286016123a7565b9150509250929050565b600067ffffffffffffffff8211156124175761241661215f565b5b61242082611fbe565b9050602081019050919050565b600061244061243b846123fc565b6121bf565b90508281526020810184848401111561245c5761245b61215a565b5b61246784828561220b565b509392505050565b600082601f83011261248457612483612155565b5b813561249484826020860161242d565b91505092915050565b600080600080608085870312156124b7576124b6611eaa565b5b60006124c587828801612100565b94505060206124d687828801612100565b93505060406124e78782880161204b565b925050606085013567ffffffffffffffff81111561250857612507611eaf565b5b6125148782880161246f565b91505092959194509250565b6000806040838503121561253757612536611eaa565b5b600061254585828601612100565b925050602061255685828601612100565b9150509250929050565b60006020828403121561257657612575611eaa565b5b600082013567ffffffffffffffff81111561259457612593611eaf565b5b6125a08482850161225c565b91505092915050565b7f4e487b7100000000000000000000000000000000000000000000000000000000600052602260045260246000fd5b600060028204905060018216806125f057607f821691505b60208210811415612604576126036125a9565b5b50919050565b7f4552433732313a20617070726f76656420717565727920666f72206e6f6e657860008201527f697374656e7420746f6b656e0000000000000000000000000000000000000000602082015250565b6000612666602c83611f7a565b91506126718261260a565b604082019050919050565b6000602082019050818103600083015261269581612659565b9050919050565b7f4552433732313a20617070726f76616c20746f2063757272656e74206f776e6560008201527f7200000000000000000000000000000000000000000000000000000000000000602082015250565b60006126f8602183611f7a565b91506127038261269c565b604082019050919050565b60006020820190508181036000830152612727816126eb565b9050919050565b7f4552433732313a20617070726f76652063616c6c6572206973206e6f74206f7760008201527f6e6572206e6f7220617070726f76656420666f7220616c6c0000000000000000602082015250565b600061278a603883611f7a565b91506127958261272e565b604082019050919050565b600060208201905081810360008301526127b98161277d565b9050919050565b7f546869732066756e6374696f6e2063616e206f6e6c792062652063616c6c656460008201527f206279206f776e65720000000000000000000000000000000000000000000000602082015250565b600061281c602983611f7a565b9150612827826127c0565b604082019050919050565b6000602082019050818103600083015261284b8161280f565b9050919050565b60006060820190506128676000830186612366565b81810360208301526128798185611fcf565b9050818103604083015261288d8184611fcf565b9050949350505050565b7f4552433732313a207472616e736665722063616c6c6572206973206e6f74206f60008201527f776e6572206e6f7220617070726f766564000000000000000000000000000000602082015250565b60006128f3603183611f7a565b91506128fe82612897565b604082019050919050565b60006020820190508181036000830152612922816128e6565b9050919050565b7f4552433732313a206f776e657220717565727920666f72206e6f6e657869737460008201527f656e7420746f6b656e0000000000000000000000000000000000000000000000602082015250565b6000612985602983611f7a565b915061299082612929565b604082019050919050565b600060208201905081810360008301526129b481612978565b9050919050565b7f4552433732313a2062616c616e636520717565727920666f7220746865207a6560008201527f726f206164647265737300000000000000000000000000000000000000000000602082015250565b6000612a17602a83611f7a565b9150612a22826129bb565b604082019050919050565b60006020820190508181036000830152612a4681612a0a565b9050919050565b7f45524337323155524953746f726167653a2055524920717565727920666f722060008201527f6e6f6e6578697374656e7420746f6b656e000000000000000000000000000000602082015250565b6000612aa9603183611f7a565b9150612ab482612a4d565b604082019050919050565b60006020820190508181036000830152612ad881612a9c565b9050919050565b600081905092915050565b6000612af582611f6f565b612aff8185612adf565b9350612b0f818560208601611f8b565b80840191505092915050565b6000612b278285612aea565b9150612b338284612aea565b91508190509392505050565b7f4d6178206c696d6974206973206f6e6c79206f6e652070657220557365720000600082015250565b6000612b75601e83611f7a565b9150612b8082612b3f565b602082019050919050565b60006020820190508181036000830152612ba481612b68565b9050919050565b6000606082019050612bc060008301866120bf565b612bcd6020830185612366565b8181036040830152612bdf8184611fcf565b9050949350505050565b7f45524337323155524953746f726167653a2055524920736574206f66206e6f6e60008201527f6578697374656e7420746f6b656e000000000000000000000000000000000000602082015250565b6000612c45602e83611f7a565b9150612c5082612be9565b604082019050919050565b60006020820190508181036000830152612c7481612c38565b9050919050565b7f4552433732313a206f70657261746f7220717565727920666f72206e6f6e657860008201527f697374656e7420746f6b656e0000000000000000000000000000000000000000602082015250565b6000612cd7602c83611f7a565b9150612ce282612c7b565b604082019050919050565b60006020820190508181036000830152612d0681612cca565b9050919050565b7f4552433732313a207472616e736665722066726f6d20696e636f72726563742060008201527f6f776e6572000000000000000000000000000000000000000000000000000000602082015250565b6000612d69602583611f7a565b9150612d7482612d0d565b604082019050919050565b60006020820190508181036000830152612d9881612d5c565b9050919050565b7f4552433732313a207472616e7366657220746f20746865207a65726f2061646460008201527f7265737300000000000000000000000000000000000000000000000000000000602082015250565b6000612dfb602483611f7a565b9150612e0682612d9f565b604082019050919050565b60006020820190508181036000830152612e2a81612dee565b9050919050565b7f4e487b7100000000000000000000000000000000000000000000000000000000600052601160045260246000fd5b6000612e6b8261202a565b9150612e768361202a565b925082821015612e8957612e88612e31565b5b828203905092915050565b6000612e9f8261202a565b9150612eaa8361202a565b9250827fffffffffffffffffffffffffffffffffffffffffffffffffffffffffffffffff03821115612edf57612ede612e31565b5b828201905092915050565b7f4552433732313a20617070726f766520746f2063616c6c657200000000000000600082015250565b6000612f20601983611f7a565b9150612f2b82612eea565b602082019050919050565b60006020820190508181036000830152612f4f81612f13565b9050919050565b7f4552433732313a207472616e7366657220746f206e6f6e20455243373231526560008201527f63656976657220696d706c656d656e7465720000000000000000000000000000602082015250565b6000612fb2603283611f7a565b9150612fbd82612f56565b604082019050919050565b60006020820190508181036000830152612fe181612fa5565b9050919050565b7f4552433732314d657461646174613a2055524920717565727920666f72206e6f60008201527f6e6578697374656e7420746f6b656e0000000000000000000000000000000000602082015250565b6000613044602f83611f7a565b915061304f82612fe8565b604082019050919050565b6000602082019050818103600083015261307381613037565b9050919050565b600060608201905081810360008301526130948186611fcf565b90506130a36020830185612366565b6130b060408301846120bf565b949350505050565b600081519050919050565b600082825260208201905092915050565b60006130df826130b8565b6130e981856130c3565b93506130f9818560208601611f8b565b61310281611fbe565b840191505092915050565b600060808201905061312260008301876120bf565b61312f60208301866120bf565b61313c6040830185612366565b818103606083015261314e81846130d4565b905095945050505050565b60008151905061316881611ee0565b92915050565b60006020828403121561318457613183611eaa565b5b600061319284828501613159565b91505092915050565b60006131a68261202a565b91507fffffffffffffffffffffffffffffffffffffffffffffffffffffffffffffffff8214156131d9576131d8612e31565b5b600182019050919050565b7f4e487b7100000000000000000000000000000000000000000000000000000000600052601260045260246000fd5b600061321e8261202a565b91506132298361202a565b925082613239576132386131e4565b5b828204905092915050565b600061324f8261202a565b915061325a8361202a565b92508261326a576132696131e4565b5b828206905092915050565b7f4e487b7100000000000000000000000000000000000000000000000000000000600052603260045260246000fd5b7f4552433732313a206d696e7420746f20746865207a65726f2061646472657373600082015250565b60006132da602083611f7a565b91506132e5826132a4565b602082019050919050565b60006020820190508181036000830152613309816132cd565b9050919050565b7f4552433732313a20746f6b656e20616c7265616479206d696e74656400000000600082015250565b6000613346601c83611f7a565b915061335182613310565b602082019050919050565b6000602082019050818103600083015261337581613339565b905091905056fe416e204e465420772f20494420257320686173206265656e206d696e74656420746f202573a2646970667358221220475b29be951cef5670f485fa9408dd6621f91468bcc9c61bf3301051f732333f64736f6c634300080a0033546869732069732075706772616461626c654e465420736d61727420636f6e7472616374",
    "linkReferences": {},
    "deployedLinkReferences": {}
}