{
    "_format": "hh-sol-artifact-1",
    "contractName": "upgradableNFT",
    "sourceName": "contracts/upgradableNFT.sol",
    "abi": [
        {
            "inputs": [],
            "stateMutability": "nonpayable",
            "type": "constructor"
        },
        {
            "anonymous": false,
            "inputs": [
                {
                    "indexed": true,
                    "internalType": "address",
                    "name": "owner",
                    "type": "address"
                },
                {
                    "indexed": true,
                    "internalType": "address",
                    "name": "approved",
                    "type": "address"
                },
                {
                    "indexed": true,
                    "internalType": "uint256",
                    "name": "tokenId",
                    "type": "uint256"
                }
            ],
            "name": "Approval",
            "type": "event"
        },
        {
            "anonymous": false,
            "inputs": [
                {
                    "indexed": true,
                    "internalType": "address",
                    "name": "owner",
                    "type": "address"
                },
                {
                    "indexed": true,
                    "internalType": "address",
                    "name": "operator",
                    "type": "address"
                },
                {
                    "indexed": false,
                    "internalType": "bool",
                    "name": "approved",
                    "type": "bool"
                }
            ],
            "name": "ApprovalForAll",
            "type": "event"
        },
        {
            "anonymous": false,
            "inputs": [
                {
                    "indexed": false,
                    "internalType": "address",
                    "name": "sender",
                    "type": "address"
                },
                {
                    "indexed": false,
                    "internalType": "uint256",
                    "name": "tokenId",
                    "type": "uint256"
                },
                {
                    "indexed": false,
                    "internalType": "string",
                    "name": "tokenURI",
                    "type": "string"
                }
            ],
            "name": "NewNFTMinted",
            "type": "event"
        },
        {
            "anonymous": false,
            "inputs": [
                {
                    "indexed": true,
                    "internalType": "address",
                    "name": "from",
                    "type": "address"
                },
                {
                    "indexed": true,
                    "internalType": "address",
                    "name": "to",
                    "type": "address"
                },
                {
                    "indexed": true,
                    "internalType": "uint256",
                    "name": "tokenId",
                    "type": "uint256"
                }
            ],
            "name": "Transfer",
            "type": "event"
        },
        {
            "anonymous": false,
            "inputs": [
                {
                    "indexed": false,
                    "internalType": "uint256",
                    "name": "tokenId",
                    "type": "uint256"
                },
                {
                    "indexed": false,
                    "internalType": "string",
                    "name": "tokenURI",
                    "type": "string"
                },
                {
                    "indexed": false,
                    "internalType": "string",
                    "name": "updatedTokenURI",
                    "type": "string"
                }
            ],
            "name": "updateMintedNFT",
            "type": "event"
        },
        {
            "inputs": [
                {
                    "internalType": "address",
                    "name": "to",
                    "type": "address"
                },
                {
                    "internalType": "uint256",
                    "name": "tokenId",
                    "type": "uint256"
                }
            ],
            "name": "approve",
            "outputs": [],
            "stateMutability": "nonpayable",
            "type": "function"
        },
        {
            "inputs": [
                {
                    "internalType": "address",
                    "name": "owner",
                    "type": "address"
                }
            ],
            "name": "balanceOf",
            "outputs": [
                {
                    "internalType": "uint256",
                    "name": "",
                    "type": "uint256"
                }
            ],
            "stateMutability": "view",
            "type": "function"
        },
        {
            "inputs": [
                {
                    "internalType": "uint256",
                    "name": "tokenId",
                    "type": "uint256"
                }
            ],
            "name": "getApproved",
            "outputs": [
                {
                    "internalType": "address",
                    "name": "",
                    "type": "address"
                }
            ],
            "stateMutability": "view",
            "type": "function"
        },
        {
            "inputs": [
                {
                    "internalType": "address",
                    "name": "owner",
                    "type": "address"
                },
                {
                    "internalType": "address",
                    "name": "operator",
                    "type": "address"
                }
            ],
            "name": "isApprovedForAll",
            "outputs": [
                {
                    "internalType": "bool",
                    "name": "",
                    "type": "bool"
                }
            ],
            "stateMutability": "view",
            "type": "function"
        },
        {
            "inputs": [
                {
                    "internalType": "string",
                    "name": "currentTokenUri",
                    "type": "string"
                }
            ],
            "name": "mintTrutsNFT",
            "outputs": [],
            "stateMutability": "nonpayable",
            "type": "function"
        },
        {
            "inputs": [],
            "name": "name",
            "outputs": [
                {
                    "internalType": "string",
                    "name": "",
                    "type": "string"
                }
            ],
            "stateMutability": "view",
            "type": "function"
        },
        {
            "inputs": [
                {
                    "internalType": "uint256",
                    "name": "tokenId",
                    "type": "uint256"
                }
            ],
            "name": "ownerOf",
            "outputs": [
                {
                    "internalType": "address",
                    "name": "",
                    "type": "address"
                }
            ],
            "stateMutability": "view",
            "type": "function"
        },
        {
            "inputs": [
                {
                    "internalType": "address",
                    "name": "from",
                    "type": "address"
                },
                {
                    "internalType": "address",
                    "name": "to",
                    "type": "address"
                },
                {
                    "internalType": "uint256",
                    "name": "tokenId",
                    "type": "uint256"
                }
            ],
            "name": "safeTransferFrom",
            "outputs": [],
            "stateMutability": "nonpayable",
            "type": "function"
        },
        {
            "inputs": [
                {
                    "internalType": "address",
                    "name": "from",
                    "type": "address"
                },
                {
                    "internalType": "address",
                    "name": "to",
                    "type": "address"
                },
                {
                    "internalType": "uint256",
                    "name": "tokenId",
                    "type": "uint256"
                },
                {
                    "internalType": "bytes",
                    "name": "_data",
                    "type": "bytes"
                }
            ],
            "name": "safeTransferFrom",
            "outputs": [],
            "stateMutability": "nonpayable",
            "type": "function"
        },
        {
            "inputs": [
                {
                    "internalType": "address",
                    "name": "operator",
                    "type": "address"
                },
                {
                    "internalType": "bool",
                    "name": "approved",
                    "type": "bool"
                }
            ],
            "name": "setApprovalForAll",
            "outputs": [],
            "stateMutability": "nonpayable",
            "type": "function"
        },
        {
            "inputs": [
                {
                    "internalType": "bytes4",
                    "name": "interfaceId",
                    "type": "bytes4"
                }
            ],
            "name": "supportsInterface",
            "outputs": [
                {
                    "internalType": "bool",
                    "name": "",
                    "type": "bool"
                }
            ],
            "stateMutability": "view",
            "type": "function"
        },
        {
            "inputs": [],
            "name": "symbol",
            "outputs": [
                {
                    "internalType": "string",
                    "name": "",
                    "type": "string"
                }
            ],
            "stateMutability": "view",
            "type": "function"
        },
        {
            "inputs": [
                {
                    "internalType": "uint256",
                    "name": "tokenId",
                    "type": "uint256"
                }
            ],
            "name": "tokenURI",
            "outputs": [
                {
                    "internalType": "string",
                    "name": "",
                    "type": "string"
                }
            ],
            "stateMutability": "view",
            "type": "function"
        },
        {
            "inputs": [
                {
                    "internalType": "address",
                    "name": "from",
                    "type": "address"
                },
                {
                    "internalType": "address",
                    "name": "to",
                    "type": "address"
                },
                {
                    "internalType": "uint256",
                    "name": "tokenId",
                    "type": "uint256"
                }
            ],
            "name": "transferFrom",
            "outputs": [],
            "stateMutability": "nonpayable",
            "type": "function"
        },
        {
            "inputs": [
                {
                    "internalType": "uint256",
                    "name": "tokenId",
                    "type": "uint256"
                },
                {
                    "internalType": "string",
                    "name": "updatedTokenURI",
                    "type": "string"
                }
            ],
            "name": "updateTokenURI",
            "outputs": [],
            "stateMutability": "nonpayable",
            "type": "function"
        }
    ],
    "bytecode": "0x60806040523480156200001157600080fd5b506040518060400160405280600d81526020017f75706772616461626c654e4654000000000000000000000000000000000000008152506040518060400160405280600581526020017f4c6576656c000000000000000000000000000000000000000000000000000000815250816000908051906020019062000096929190620001f4565b508060019080519060200190620000af929190620001f4565b505050620000e16040518060600160405280602481526020016200348e602491396200012860201b62000c7a1760201c565b33600760006101000a81548173ffffffffffffffffffffffffffffffffffffffff021916908373ffffffffffffffffffffffffffffffffffffffff160217905550620003d1565b620001c8816040516024016200013f919062000348565b6040516020818303038152906040527f41304fac000000000000000000000000000000000000000000000000000000007bffffffffffffffffffffffffffffffffffffffffffffffffffffffff19166020820180517bffffffffffffffffffffffffffffffffffffffffffffffffffffffff8381831617835250505050620001cb60201b60201c565b50565b60008151905060006a636f6e736f6c652e6c6f679050602083016000808483855afa5050505050565b82805462000202906200039b565b90600052602060002090601f01602090048101928262000226576000855562000272565b82601f106200024157805160ff191683800117855562000272565b8280016001018555821562000272579182015b828111156200027157825182559160200191906001019062000254565b5b50905062000281919062000285565b5090565b5b80821115620002a057600081600090555060010162000286565b5090565b600081519050919050565b600082825260208201905092915050565b60005b83811015620002e0578082015181840152602081019050620002c3565b83811115620002f0576000848401525b50505050565b6000601f19601f8301169050919050565b60006200031482620002a4565b620003208185620002af565b935062000332818560208601620002c0565b6200033d81620002f6565b840191505092915050565b6000602082019050818103600083015262000364818462000307565b905092915050565b7f4e487b7100000000000000000000000000000000000000000000000000000000600052602260045260246000fd5b60006002820490506001821680620003b457607f821691505b60208210811415620003cb57620003ca6200036c565b5b50919050565b6130ad80620003e16000396000f3fe608060405234801561001057600080fd5b50600436106100f55760003560e01c80636352211e11610097578063b88d4fde11610066578063b88d4fde14610282578063c87b56dd1461029e578063e985e9c5146102ce578063edbb0e3b146102fe576100f5565b80636352211e146101e857806370a082311461021857806395d89b4114610248578063a22cb46514610266576100f5565b8063095ea7b3116100d3578063095ea7b31461017857806318e97fd11461019457806323b872dd146101b057806342842e0e146101cc576100f5565b806301ffc9a7146100fa57806306fdde031461012a578063081812fc14610148575b600080fd5b610114600480360381019061010f9190611c4e565b61031a565b6040516101219190611c96565b60405180910390f35b6101326103fc565b60405161013f9190611d4a565b60405180910390f35b610162600480360381019061015d9190611da2565b61048e565b60405161016f9190611e10565b60405180910390f35b610192600480360381019061018d9190611e57565b610513565b005b6101ae60048036038101906101a99190611fcc565b61062b565b005b6101ca60048036038101906101c59190612028565b610712565b005b6101e660048036038101906101e19190612028565b610772565b005b61020260048036038101906101fd9190611da2565b610792565b60405161020f9190611e10565b60405180910390f35b610232600480360381019061022d919061207b565b610844565b60405161023f91906120b7565b60405180910390f35b6102506108fc565b60405161025d9190611d4a565b60405180910390f35b610280600480360381019061027b91906120fe565b61098e565b005b61029c600480360381019061029791906121df565b6109a4565b005b6102b860048036038101906102b39190611da2565b610a06565b6040516102c59190611d4a565b60405180910390f35b6102e860048036038101906102e39190612262565b610b58565b6040516102f59190611c96565b60405180910390f35b610318600480360381019061031391906122a2565b610bec565b005b60007f80ac58cd000000000000000000000000000000000000000000000000000000007bffffffffffffffffffffffffffffffffffffffffffffffffffffffff1916827bffffffffffffffffffffffffffffffffffffffffffffffffffffffff191614806103e557507f5b5e139f000000000000000000000000000000000000000000000000000000007bffffffffffffffffffffffffffffffffffffffffffffffffffffffff1916827bffffffffffffffffffffffffffffffffffffffffffffffffffffffff1916145b806103f557506103f482610d13565b5b9050919050565b60606000805461040b9061231a565b80601f01602080910402602001604051908101604052809291908181526020018280546104379061231a565b80156104845780601f1061045957610100808354040283529160200191610484565b820191906000526020600020905b81548152906001019060200180831161046757829003601f168201915b5050505050905090565b600061049982610d7d565b6104d8576040517f08c379a00000000000000000000000000000000000000000000000000000000081526004016104cf906123be565b60405180910390fd5b6004600083815260200190815260200160002060009054906101000a900473ffffffffffffffffffffffffffffffffffffffff169050919050565b600061051e82610792565b90508073ffffffffffffffffffffffffffffffffffffffff168373ffffffffffffffffffffffffffffffffffffffff16141561058f576040517f08c379a000000000000000000000000000000000000000000000000000000000815260040161058690612450565b60405180910390fd5b8073ffffffffffffffffffffffffffffffffffffffff166105ae610de9565b73ffffffffffffffffffffffffffffffffffffffff1614806105dd57506105dc816105d7610de9565b610b58565b5b61061c576040517f08c379a0000000000000000000000000000000000000000000000000000000008152600401610613906124e2565b60405180910390fd5b6106268383610df1565b505050565b600760009054906101000a900473ffffffffffffffffffffffffffffffffffffffff1673ffffffffffffffffffffffffffffffffffffffff163373ffffffffffffffffffffffffffffffffffffffff16146106bb576040517f08c379a00000000000000000000000000000000000000000000000000000000081526004016106b290612574565b60405180910390fd5b60006106c683610a06565b90506106d28383610eaa565b7f818424c0e4bdc062034767caba412687e46e05994f53c85bd3e9b8beae56914583828460405161070593929190612594565b60405180910390a1505050565b61072361071d610de9565b82610f1e565b610762576040517f08c379a00000000000000000000000000000000000000000000000000000000081526004016107599061264b565b60405180910390fd5b61076d838383610ffc565b505050565b61078d838383604051806020016040528060008152506109a4565b505050565b6000806002600084815260200190815260200160002060009054906101000a900473ffffffffffffffffffffffffffffffffffffffff169050600073ffffffffffffffffffffffffffffffffffffffff168173ffffffffffffffffffffffffffffffffffffffff16141561083b576040517f08c379a0000000000000000000000000000000000000000000000000000000008152600401610832906126dd565b60405180910390fd5b80915050919050565b60008073ffffffffffffffffffffffffffffffffffffffff168273ffffffffffffffffffffffffffffffffffffffff1614156108b5576040517f08c379a00000000000000000000000000000000000000000000000000000000081526004016108ac9061276f565b60405180910390fd5b600360008373ffffffffffffffffffffffffffffffffffffffff1673ffffffffffffffffffffffffffffffffffffffff168152602001908152602001600020549050919050565b60606001805461090b9061231a565b80601f01602080910402602001604051908101604052809291908181526020018280546109379061231a565b80156109845780601f1061095957610100808354040283529160200191610984565b820191906000526020600020905b81548152906001019060200180831161096757829003601f168201915b5050505050905090565b6109a0610999610de9565b8383611263565b5050565b6109b56109af610de9565b83610f1e565b6109f4576040517f08c379a00000000000000000000000000000000000000000000000000000000081526004016109eb9061264b565b60405180910390fd5b610a00848484846113d0565b50505050565b6060610a1182610d7d565b610a50576040517f08c379a0000000000000000000000000000000000000000000000000000000008152600401610a4790612801565b60405180910390fd5b6000600660008481526020019081526020016000208054610a709061231a565b80601f0160208091040260200160405190810160405280929190818152602001828054610a9c9061231a565b8015610ae95780601f10610abe57610100808354040283529160200191610ae9565b820191906000526020600020905b815481529060010190602001808311610acc57829003601f168201915b505050505090506000610afa61142c565b9050600081511415610b10578192505050610b53565b600082511115610b45578082604051602001610b2d92919061285d565b60405160208183030381529060405292505050610b53565b610b4e84611443565b925050505b919050565b6000600560008473ffffffffffffffffffffffffffffffffffffffff1673ffffffffffffffffffffffffffffffffffffffff16815260200190815260200160002060008373ffffffffffffffffffffffffffffffffffffffff1673ffffffffffffffffffffffffffffffffffffffff16815260200190815260200160002060009054906101000a900460ff16905092915050565b6000610bf860086114ea565b9050610c0433826114f8565b610c0e8183610eaa565b7f899b99f6c26ce7a463fc72a3a36ae78b414dae9cfa6e88e8580ec708e70f30b0338284604051610c4193929190612881565b60405180910390a1610c536008611516565b610c7660405180606001604052806025815260200161305360259139823361152c565b5050565b610d1081604051602401610c8e9190611d4a565b6040516020818303038152906040527f41304fac000000000000000000000000000000000000000000000000000000007bffffffffffffffffffffffffffffffffffffffffffffffffffffffff19166020820180517bffffffffffffffffffffffffffffffffffffffffffffffffffffffff83818316178352505050506115cb565b50565b60007f01ffc9a7000000000000000000000000000000000000000000000000000000007bffffffffffffffffffffffffffffffffffffffffffffffffffffffff1916827bffffffffffffffffffffffffffffffffffffffffffffffffffffffff1916149050919050565b60008073ffffffffffffffffffffffffffffffffffffffff166002600084815260200190815260200160002060009054906101000a900473ffffffffffffffffffffffffffffffffffffffff1673ffffffffffffffffffffffffffffffffffffffff1614159050919050565b600033905090565b816004600083815260200190815260200160002060006101000a81548173ffffffffffffffffffffffffffffffffffffffff021916908373ffffffffffffffffffffffffffffffffffffffff160217905550808273ffffffffffffffffffffffffffffffffffffffff16610e6483610792565b73ffffffffffffffffffffffffffffffffffffffff167f8c5be1e5ebec7d5bd14f71427d1e84f3dd0314c0f7b2291e5b200ac8c7c3b92560405160405180910390a45050565b610eb382610d7d565b610ef2576040517f08c379a0000000000000000000000000000000000000000000000000000000008152600401610ee990612931565b60405180910390fd5b80600660008481526020019081526020016000209080519060200190610f19929190611b3f565b505050565b6000610f2982610d7d565b610f68576040517f08c379a0000000000000000000000000000000000000000000000000000000008152600401610f5f906129c3565b60405180910390fd5b6000610f7383610792565b90508073ffffffffffffffffffffffffffffffffffffffff168473ffffffffffffffffffffffffffffffffffffffff161480610fb55750610fb48185610b58565b5b80610ff357508373ffffffffffffffffffffffffffffffffffffffff16610fdb8461048e565b73ffffffffffffffffffffffffffffffffffffffff16145b91505092915050565b8273ffffffffffffffffffffffffffffffffffffffff1661101c82610792565b73ffffffffffffffffffffffffffffffffffffffff1614611072576040517f08c379a000000000000000000000000000000000000000000000000000000000815260040161106990612a55565b60405180910390fd5b600073ffffffffffffffffffffffffffffffffffffffff168273ffffffffffffffffffffffffffffffffffffffff1614156110e2576040517f08c379a00000000000000000000000000000000000000000000000000000000081526004016110d990612ae7565b60405180910390fd5b6110ed8383836115f4565b6110f8600082610df1565b6001600360008573ffffffffffffffffffffffffffffffffffffffff1673ffffffffffffffffffffffffffffffffffffffff16815260200190815260200160002060008282546111489190612b36565b925050819055506001600360008473ffffffffffffffffffffffffffffffffffffffff1673ffffffffffffffffffffffffffffffffffffffff168152602001908152602001600020600082825461119f9190612b6a565b92505081905550816002600083815260200190815260200160002060006101000a81548173ffffffffffffffffffffffffffffffffffffffff021916908373ffffffffffffffffffffffffffffffffffffffff160217905550808273ffffffffffffffffffffffffffffffffffffffff168473ffffffffffffffffffffffffffffffffffffffff167fddf252ad1be2c89b69c2b068fc378daa952ba7f163c4a11628f55a4df523b3ef60405160405180910390a461125e8383836115f9565b505050565b8173ffffffffffffffffffffffffffffffffffffffff168373ffffffffffffffffffffffffffffffffffffffff1614156112d2576040517f08c379a00000000000000000000000000000000000000000000000000000000081526004016112c990612c0c565b60405180910390fd5b80600560008573ffffffffffffffffffffffffffffffffffffffff1673ffffffffffffffffffffffffffffffffffffffff16815260200190815260200160002060008473ffffffffffffffffffffffffffffffffffffffff1673ffffffffffffffffffffffffffffffffffffffff16815260200190815260200160002060006101000a81548160ff0219169083151502179055508173ffffffffffffffffffffffffffffffffffffffff168373ffffffffffffffffffffffffffffffffffffffff167f17307eab39ab6107e8899845ad3d59bd9653f200f220920489ca2b5937696c31836040516113c39190611c96565b60405180910390a3505050565b6113db848484610ffc565b6113e7848484846115fe565b611426576040517f08c379a000000000000000000000000000000000000000000000000000000000815260040161141d90612c9e565b60405180910390fd5b50505050565b606060405180602001604052806000815250905090565b606061144e82610d7d565b61148d576040517f08c379a000000000000000000000000000000000000000000000000000000000815260040161148490612d30565b60405180910390fd5b600061149761142c565b905060008151116114b757604051806020016040528060008152506114e2565b806114c184611786565b6040516020016114d292919061285d565b6040516020818303038152906040525b915050919050565b600081600001549050919050565b6115128282604051806020016040528060008152506118e7565b5050565b6001816000016000828254019250508190555050565b6115c683838360405160240161154493929190612d50565b6040516020818303038152906040527fe3849f79000000000000000000000000000000000000000000000000000000007bffffffffffffffffffffffffffffffffffffffffffffffffffffffff19166020820180517bffffffffffffffffffffffffffffffffffffffffffffffffffffffff83818316178352505050506115cb565b505050565b60008151905060006a636f6e736f6c652e6c6f679050602083016000808483855afa5050505050565b505050565b505050565b600061161f8473ffffffffffffffffffffffffffffffffffffffff16611942565b15611779578373ffffffffffffffffffffffffffffffffffffffff1663150b7a02611648610de9565b8786866040518563ffffffff1660e01b815260040161166a9493929190612de3565b6020604051808303816000875af19250505080156116a657506040513d601f19601f820116820180604052508101906116a39190612e44565b60015b611729573d80600081146116d6576040519150601f19603f3d011682016040523d82523d6000602084013e6116db565b606091505b50600081511415611721576040517f08c379a000000000000000000000000000000000000000000000000000000000815260040161171890612c9e565b60405180910390fd5b805181602001fd5b63150b7a0260e01b7bffffffffffffffffffffffffffffffffffffffffffffffffffffffff1916817bffffffffffffffffffffffffffffffffffffffffffffffffffffffff19161491505061177e565b600190505b949350505050565b606060008214156117ce576040518060400160405280600181526020017f300000000000000000000000000000000000000000000000000000000000000081525090506118e2565b600082905060005b600082146118005780806117e990612e71565b915050600a826117f99190612ee9565b91506117d6565b60008167ffffffffffffffff81111561181c5761181b611ea1565b5b6040519080825280601f01601f19166020018201604052801561184e5781602001600182028036833780820191505090505b5090505b600085146118db576001826118679190612b36565b9150600a856118769190612f1a565b60306118829190612b6a565b60f81b81838151811061189857611897612f4b565b5b60200101907effffffffffffffffffffffffffffffffffffffffffffffffffffffffffffff1916908160001a905350600a856118d49190612ee9565b9450611852565b8093505050505b919050565b6118f18383611965565b6118fe60008484846115fe565b61193d576040517f08c379a000000000000000000000000000000000000000000000000000000000815260040161193490612c9e565b60405180910390fd5b505050565b6000808273ffffffffffffffffffffffffffffffffffffffff163b119050919050565b600073ffffffffffffffffffffffffffffffffffffffff168273ffffffffffffffffffffffffffffffffffffffff1614156119d5576040517f08c379a00000000000000000000000000000000000000000000000000000000081526004016119cc90612fc6565b60405180910390fd5b6119de81610d7d565b15611a1e576040517f08c379a0000000000000000000000000000000000000000000000000000000008152600401611a1590613032565b60405180910390fd5b611a2a600083836115f4565b6001600360008473ffffffffffffffffffffffffffffffffffffffff1673ffffffffffffffffffffffffffffffffffffffff1681526020019081526020016000206000828254611a7a9190612b6a565b92505081905550816002600083815260200190815260200160002060006101000a81548173ffffffffffffffffffffffffffffffffffffffff021916908373ffffffffffffffffffffffffffffffffffffffff160217905550808273ffffffffffffffffffffffffffffffffffffffff16600073ffffffffffffffffffffffffffffffffffffffff167fddf252ad1be2c89b69c2b068fc378daa952ba7f163c4a11628f55a4df523b3ef60405160405180910390a4611b3b600083836115f9565b5050565b828054611b4b9061231a565b90600052602060002090601f016020900481019282611b6d5760008555611bb4565b82601f10611b8657805160ff1916838001178555611bb4565b82800160010185558215611bb4579182015b82811115611bb3578251825591602001919060010190611b98565b5b509050611bc19190611bc5565b5090565b5b80821115611bde576000816000905550600101611bc6565b5090565b6000604051905090565b600080fd5b600080fd5b60007fffffffff0000000000000000000000000000000000000000000000000000000082169050919050565b611c2b81611bf6565b8114611c3657600080fd5b50565b600081359050611c4881611c22565b92915050565b600060208284031215611c6457611c63611bec565b5b6000611c7284828501611c39565b91505092915050565b60008115159050919050565b611c9081611c7b565b82525050565b6000602082019050611cab6000830184611c87565b92915050565b600081519050919050565b600082825260208201905092915050565b60005b83811015611ceb578082015181840152602081019050611cd0565b83811115611cfa576000848401525b50505050565b6000601f19601f8301169050919050565b6000611d1c82611cb1565b611d268185611cbc565b9350611d36818560208601611ccd565b611d3f81611d00565b840191505092915050565b60006020820190508181036000830152611d648184611d11565b905092915050565b6000819050919050565b611d7f81611d6c565b8114611d8a57600080fd5b50565b600081359050611d9c81611d76565b92915050565b600060208284031215611db857611db7611bec565b5b6000611dc684828501611d8d565b91505092915050565b600073ffffffffffffffffffffffffffffffffffffffff82169050919050565b6000611dfa82611dcf565b9050919050565b611e0a81611def565b82525050565b6000602082019050611e256000830184611e01565b92915050565b611e3481611def565b8114611e3f57600080fd5b50565b600081359050611e5181611e2b565b92915050565b60008060408385031215611e6e57611e6d611bec565b5b6000611e7c85828601611e42565b9250506020611e8d85828601611d8d565b9150509250929050565b600080fd5b600080fd5b7f4e487b7100000000000000000000000000000000000000000000000000000000600052604160045260246000fd5b611ed982611d00565b810181811067ffffffffffffffff82111715611ef857611ef7611ea1565b5b80604052505050565b6000611f0b611be2565b9050611f178282611ed0565b919050565b600067ffffffffffffffff821115611f3757611f36611ea1565b5b611f4082611d00565b9050602081019050919050565b82818337600083830152505050565b6000611f6f611f6a84611f1c565b611f01565b905082815260208101848484011115611f8b57611f8a611e9c565b5b611f96848285611f4d565b509392505050565b600082601f830112611fb357611fb2611e97565b5b8135611fc3848260208601611f5c565b91505092915050565b60008060408385031215611fe357611fe2611bec565b5b6000611ff185828601611d8d565b925050602083013567ffffffffffffffff81111561201257612011611bf1565b5b61201e85828601611f9e565b9150509250929050565b60008060006060848603121561204157612040611bec565b5b600061204f86828701611e42565b935050602061206086828701611e42565b925050604061207186828701611d8d565b9150509250925092565b60006020828403121561209157612090611bec565b5b600061209f84828501611e42565b91505092915050565b6120b181611d6c565b82525050565b60006020820190506120cc60008301846120a8565b92915050565b6120db81611c7b565b81146120e657600080fd5b50565b6000813590506120f8816120d2565b92915050565b6000806040838503121561211557612114611bec565b5b600061212385828601611e42565b9250506020612134858286016120e9565b9150509250929050565b600067ffffffffffffffff82111561215957612158611ea1565b5b61216282611d00565b9050602081019050919050565b600061218261217d8461213e565b611f01565b90508281526020810184848401111561219e5761219d611e9c565b5b6121a9848285611f4d565b509392505050565b600082601f8301126121c6576121c5611e97565b5b81356121d684826020860161216f565b91505092915050565b600080600080608085870312156121f9576121f8611bec565b5b600061220787828801611e42565b945050602061221887828801611e42565b935050604061222987828801611d8d565b925050606085013567ffffffffffffffff81111561224a57612249611bf1565b5b612256878288016121b1565b91505092959194509250565b6000806040838503121561227957612278611bec565b5b600061228785828601611e42565b925050602061229885828601611e42565b9150509250929050565b6000602082840312156122b8576122b7611bec565b5b600082013567ffffffffffffffff8111156122d6576122d5611bf1565b5b6122e284828501611f9e565b91505092915050565b7f4e487b7100000000000000000000000000000000000000000000000000000000600052602260045260246000fd5b6000600282049050600182168061233257607f821691505b60208210811415612346576123456122eb565b5b50919050565b7f4552433732313a20617070726f76656420717565727920666f72206e6f6e657860008201527f697374656e7420746f6b656e0000000000000000000000000000000000000000602082015250565b60006123a8602c83611cbc565b91506123b38261234c565b604082019050919050565b600060208201905081810360008301526123d78161239b565b9050919050565b7f4552433732313a20617070726f76616c20746f2063757272656e74206f776e6560008201527f7200000000000000000000000000000000000000000000000000000000000000602082015250565b600061243a602183611cbc565b9150612445826123de565b604082019050919050565b600060208201905081810360008301526124698161242d565b9050919050565b7f4552433732313a20617070726f76652063616c6c6572206973206e6f74206f7760008201527f6e6572206e6f7220617070726f76656420666f7220616c6c0000000000000000602082015250565b60006124cc603883611cbc565b91506124d782612470565b604082019050919050565b600060208201905081810360008301526124fb816124bf565b9050919050565b7f546869732066756e6374696f6e2063616e206f6e6c792062652063616c6c656460008201527f206279206f776e65720000000000000000000000000000000000000000000000602082015250565b600061255e602983611cbc565b915061256982612502565b604082019050919050565b6000602082019050818103600083015261258d81612551565b9050919050565b60006060820190506125a960008301866120a8565b81810360208301526125bb8185611d11565b905081810360408301526125cf8184611d11565b9050949350505050565b7f4552433732313a207472616e736665722063616c6c6572206973206e6f74206f60008201527f776e6572206e6f7220617070726f766564000000000000000000000000000000602082015250565b6000612635603183611cbc565b9150612640826125d9565b604082019050919050565b6000602082019050818103600083015261266481612628565b9050919050565b7f4552433732313a206f776e657220717565727920666f72206e6f6e657869737460008201527f656e7420746f6b656e0000000000000000000000000000000000000000000000602082015250565b60006126c7602983611cbc565b91506126d28261266b565b604082019050919050565b600060208201905081810360008301526126f6816126ba565b9050919050565b7f4552433732313a2062616c616e636520717565727920666f7220746865207a6560008201527f726f206164647265737300000000000000000000000000000000000000000000602082015250565b6000612759602a83611cbc565b9150612764826126fd565b604082019050919050565b600060208201905081810360008301526127888161274c565b9050919050565b7f45524337323155524953746f726167653a2055524920717565727920666f722060008201527f6e6f6e6578697374656e7420746f6b656e000000000000000000000000000000602082015250565b60006127eb603183611cbc565b91506127f68261278f565b604082019050919050565b6000602082019050818103600083015261281a816127de565b9050919050565b600081905092915050565b600061283782611cb1565b6128418185612821565b9350612851818560208601611ccd565b80840191505092915050565b6000612869828561282c565b9150612875828461282c565b91508190509392505050565b60006060820190506128966000830186611e01565b6128a360208301856120a8565b81810360408301526128b58184611d11565b9050949350505050565b7f45524337323155524953746f726167653a2055524920736574206f66206e6f6e60008201527f6578697374656e7420746f6b656e000000000000000000000000000000000000602082015250565b600061291b602e83611cbc565b9150612926826128bf565b604082019050919050565b6000602082019050818103600083015261294a8161290e565b9050919050565b7f4552433732313a206f70657261746f7220717565727920666f72206e6f6e657860008201527f697374656e7420746f6b656e0000000000000000000000000000000000000000602082015250565b60006129ad602c83611cbc565b91506129b882612951565b604082019050919050565b600060208201905081810360008301526129dc816129a0565b9050919050565b7f4552433732313a207472616e736665722066726f6d20696e636f72726563742060008201527f6f776e6572000000000000000000000000000000000000000000000000000000602082015250565b6000612a3f602583611cbc565b9150612a4a826129e3565b604082019050919050565b60006020820190508181036000830152612a6e81612a32565b9050919050565b7f4552433732313a207472616e7366657220746f20746865207a65726f2061646460008201527f7265737300000000000000000000000000000000000000000000000000000000602082015250565b6000612ad1602483611cbc565b9150612adc82612a75565b604082019050919050565b60006020820190508181036000830152612b0081612ac4565b9050919050565b7f4e487b7100000000000000000000000000000000000000000000000000000000600052601160045260246000fd5b6000612b4182611d6c565b9150612b4c83611d6c565b925082821015612b5f57612b5e612b07565b5b828203905092915050565b6000612b7582611d6c565b9150612b8083611d6c565b9250827fffffffffffffffffffffffffffffffffffffffffffffffffffffffffffffffff03821115612bb557612bb4612b07565b5b828201905092915050565b7f4552433732313a20617070726f766520746f2063616c6c657200000000000000600082015250565b6000612bf6601983611cbc565b9150612c0182612bc0565b602082019050919050565b60006020820190508181036000830152612c2581612be9565b9050919050565b7f4552433732313a207472616e7366657220746f206e6f6e20455243373231526560008201527f63656976657220696d706c656d656e7465720000000000000000000000000000602082015250565b6000612c88603283611cbc565b9150612c9382612c2c565b604082019050919050565b60006020820190508181036000830152612cb781612c7b565b9050919050565b7f4552433732314d657461646174613a2055524920717565727920666f72206e6f60008201527f6e6578697374656e7420746f6b656e0000000000000000000000000000000000602082015250565b6000612d1a602f83611cbc565b9150612d2582612cbe565b604082019050919050565b60006020820190508181036000830152612d4981612d0d565b9050919050565b60006060820190508181036000830152612d6a8186611d11565b9050612d7960208301856120a8565b612d866040830184611e01565b949350505050565b600081519050919050565b600082825260208201905092915050565b6000612db582612d8e565b612dbf8185612d99565b9350612dcf818560208601611ccd565b612dd881611d00565b840191505092915050565b6000608082019050612df86000830187611e01565b612e056020830186611e01565b612e1260408301856120a8565b8181036060830152612e248184612daa565b905095945050505050565b600081519050612e3e81611c22565b92915050565b600060208284031215612e5a57612e59611bec565b5b6000612e6884828501612e2f565b91505092915050565b6000612e7c82611d6c565b91507fffffffffffffffffffffffffffffffffffffffffffffffffffffffffffffffff821415612eaf57612eae612b07565b5b600182019050919050565b7f4e487b7100000000000000000000000000000000000000000000000000000000600052601260045260246000fd5b6000612ef482611d6c565b9150612eff83611d6c565b925082612f0f57612f0e612eba565b5b828204905092915050565b6000612f2582611d6c565b9150612f3083611d6c565b925082612f4057612f3f612eba565b5b828206905092915050565b7f4e487b7100000000000000000000000000000000000000000000000000000000600052603260045260246000fd5b7f4552433732313a206d696e7420746f20746865207a65726f2061646472657373600082015250565b6000612fb0602083611cbc565b9150612fbb82612f7a565b602082019050919050565b60006020820190508181036000830152612fdf81612fa3565b9050919050565b7f4552433732313a20746f6b656e20616c7265616479206d696e74656400000000600082015250565b600061301c601c83611cbc565b915061302782612fe6565b602082019050919050565b6000602082019050818103600083015261304b8161300f565b905091905056fe416e204e465420772f20494420257320686173206265656e206d696e74656420746f202573a2646970667358221220f670ab97b4edc60c44aa785be08f60675042bc4ff4975e55379b2ff58e3ab87164736f6c634300080a0033546869732069732075706772616461626c654e465420736d61727420636f6e7472616374",
    "linkReferences": {},
    "deployedLinkReferences": {}
}